:020000040000FA
:10000000B3EF13F01200FFFFFFFFFFFFFFFFFFFF43
:10001000FFFFFFFFFFFFFFFFFFFFFFFFFFFFFFFFF0
:10002000FFFFFFFFFFFFFFFFFFFF0000696A686A35
:10003000140E6F6E080E6D6E00016D6B766B010E07
:100040006E6F6F696DBAFED71200D9CFE6FFE1CFB0
:10005000D9FF020EE12668A202D06A6A87D068AC96
:1000600002D0689C83D068A803D068986D827ED047
:1000700068A403D068946D9279D068AA02D0689A77
:1000800075D068A02FD000016D6B68966896689651
:100090006896706A716A726A736A746A756A766A57
:1000A000776A786A796A7A6A7B6A7C6A7D6A7E6A2C
:1000B0007F6A0401400E016F800E026F040E036F11
:1000C000880E006FC00E066F040E076F080E046FD7
:1000D0006E6A686A160E706E6B680001010E766FAC
:1000E0006E6F44D068A642D07C0E6C14116A000F6B
:1000F000106E040E112210C0DEFF11C0DDFFDECF36
:10010000E9FFDDCFEAFFEFCF60F0DECFE9FFDDCF23
:10011000EAFFEE52EFCF61F0DECFE9FFDDCFEAFF7D
:10012000020EE926000EEA22EECF62F0EDCF63F078
:100130006CCF75F0689600016C6B3C0E6015040A7C
:100140000AE0200A05E0100A01E007D019D805D01E
:100150006FEC0FF002D090EC0FF000016CA106D014
:100160000401400E016F840E046F006F020EE15C0B
:1001700002E2E16AE552E16EE552E7CFD9FF1200F3
:10018000D9CFE6FFE1CFD9FFE652DF6A080EDF5C88
:1001900014E2DF500001EA6A6225E96E6351EA2247
:1001A000EF50E66EDF50EA6A640FE96E000EEA2255
:1001B000E552E750EF6EDF2AE9D70401400E016FE8
:1001C000080E046F800E0001641504E16A5104E119
:1001D0006B5102E1000E01D0010E000902E0C80ED1
:1001E00001D0880E0401006F6D9800016F69600EE8
:1001F0006415400A09E0600A05E0200A01E006D023
:100200000BD805D06DDA03D070DA01D06C81E552DD
:10021000E552E7CFD9FF1200D9CFE6FFE1CFD9FFF2
:10022000050EE12600016551070A01E14ED20B0AD5
:1002300001E14BD2070A01E133D2010A01E11AD2EE
:10024000030A01E1F4D1010A01E1E5D10E0A01E15D
:1002500078D1030A01E167D1040A01E1C7D0020A9B
:1002600001E1C4D0030A01E030D21F0E6415020A76
:1002700037E0030A16E0010A01E0B6D006C4E9FF40
:1002800007C4EAFF6EC0EFFF010E0401EA6A06250B
:10029000E96E0751EA22EF6A020E056FC80E046F7D
:1002A000A4D07651030A05E0010A01E018D06C8160
:1002B00016D0010E685D12E206C4E9FF07C4EAFF2A
:1002C000EF6A010E0401EA6A0625E96E0751EA2287
:1002D000EF6A020E056FC80E046F01D06C8185D0E5
:1002E0007651030A25E0010A01E07CD00F0E681563
:1002F0001DE1800E681503E00401045102D00401E1
:100300000051040BE840E8403F0B06C4E9FF07C476
:10031000EAFFEF6E010EEA6A0625E96E0751EA224E
:10032000EF6A020E056FC80E046F01D06C815BD0BE
:10033000700EDE6E0F0EDD6E0F0E6815E76E020E8C
:10034000E7CFDBFF800E681502E0010E01D0000E42
:10035000126E020EDB50E8241210040DF3CF10F0E1
:10036000F4CF11F0000E1026040E1122030E10C05F
:10037000DBFF040E11C0DBFF800E681502E0020EE9
:1003800001D0040E106E020EDB50E76E000EDFCFC0
:10039000E9FF010EDBCFEAFFE750E926000EEA2273
:1003A000EF5010141DE0030EDBCFE9FF040EDBCF8E
:1003B000EAFFEF50040BE840E8403F0B06C4E9FFBA
:1003C00007C4EAFFEF6E010E0401EA6A0625E96E32
:1003D0000751EA22EF6A020E056FC80E046F01D0C2
:1003E0006C8101D06C8101D06C8170D11F0E6415BD
:1003F000020A13E0020A01E094D06651010A01E00A
:100400000AD0650502E16E9101D06E810401056B91
:10041000C80E046F01D06C8185D07651030A0DE0BF
:10042000010A01E07CD00F0E681505E10401056B9F
:10043000C80E046F01D06C8173D0700EDE6E0F0E8B
:10044000DD6E0F0E6815E76E020EE7CFDBFFDB50A7
:100450005FE0800E681502E0010E01D0000E126E02
:10046000020EDB50E8241210040DF3CF10F0F4CF8D
:1004700011F0000E1026040E1122030E10C0DBFF37
:10048000040E11C0DBFF68AF22D0020EDB50E76E16
:10049000000EDFCFE9FF010EDBCFEAFFE750E926D0
:1004A000000EEA22EF50020B10E0650502E1000E9B
:1004B00001D0840EE66E030EDBCFE9FF040EDBCF26
:1004C000EAFFE552E750EF6E01D06C8121D0020EB9
:1004D000DB50E76E000EDFCFE9FF010EDBCFEAFF56
:1004E000E750E926000EEA22EF50040B10E0650504
:1004F00002E1880E01D0840EE66E030EDBCFE9FF29
:10050000040EDBCFEAFFE552E750EF6E01D06C81BD
:100510006CB104D00401056BC80E046F01D06C816E
:1005200001D06C81D3D066517F0802E26C8108D083
:10053000050E6F6F66C070F00401056BC80E046F86
:10054000C5D0060E6F6F6751030A38E0010A18E044
:10055000030A01E05ED09A0E716F260E726F71C0B1
:10056000F6FF72C0F7FF0800F5CF73F06B5105E19D
:1005700073516A5D02E26AC073F0A6EC0FF04AD0D4
:10058000665101E005D0AC0E716F260E726F01D07E
:100590006C816CB112D0020EF76A7125F66E725141
:1005A000F7220800F5CF73F06B5105E173516A5DD6
:1005B00002E26AC073F0A6EC0FF02CD06651020A7A
:1005C0000FE0030A08E0010A01E00FD0BE0E716FD0
:1005D000260E726F0BD0C20E716F260E726F06D090
:1005E000DC0E716F260E726F01D06C816CB110D071
:1005F00071C0F6FF72C0F7FF0800F5CF73F06B51C2
:1006000005E173516A5D02E26AC073F0A6EC0FF077
:1006100001D06C815BD006C4E9FF07C4EAFF6DC05E
:10062000EFFF0401010E056FC80E046F4FD0665135
:1006300001081EE3716A726A736A746A756A766A7F
:10064000776A786A796A7A6A7B6A7C6A7D6A7E6A86
:100650007F6A66C06DF0665101E003D0020E766FCE
:1006600002D0030E766F0401056BC80E046F01D033
:100670006C812CD07651030A01E010D0010E685D28
:100680000BE206C4E9FF07C4EAFFEF6A0401010EAA
:10069000056FC80E046F01D06C8101D06C8116D03B
:1006A0007651030A01E00FD0010E685D0AE266513F
:1006B00001E005D00401056BC80E046F01D06C8108
:1006C00001D06C8101D06C8101D06C81050EE15CA0
:1006D00002E2E16AE552E16EE552E7CFD9FF12008E
:1006E0000001655100D06C811200D9CFE6FFE1CF47
:1006F000D9FF0F0EE126030E0001765D03E06C8149
:1007000065EF0FF06805E76E020EE7CFDBFFDB5009
:100710000AE0020EDB0407E06C0502E1000E01D0E6
:10072000010E65EF0FF06551140A02E12DEF0DF097
:10073000070A02E1FBEF0BF0010A02E164EF0BF0A4
:10074000030A02E1DBEF0AF0010A02E10CEF0AF012
:100750001F0A02E1D2EF08F0010A02E156EF08F0A9
:10076000030A02E1ECEF07F0010A01E1E5D3070A11
:1007700001E162D3010A01E1ADD1030A01E160D1D7
:10078000010A01E1D1D00F0A01E1BAD0010A01E169
:100790009BD0030A01E184D0010A66E0070A50E019
:1007A000010A38E0030A22E0010A02E064EF0FF0D8
:1007B000665102E0010E01D0000EE66E020EDB5023
:1007C000EA6A790FE96E000EEA22E552E750EF6E11
:1007D000020EDB5003E1DFEC0FF002D029EC10F049
:1007E0000401056BC80E046F65EF0FF0020EDB50BD
:1007F000EA6A790FE96E000EEA22EF5006C4E9FFBB
:1008000007C4EAFFEF6E0401010E056FC80E046F06
:1008100065EF0FF0665102E0010E01D0000EE66EAA
:10082000020EDB50EA6A770FE96E000EEA22E5520B
:10083000E750EF6E0401056BC80E046F65EF0FF013
:10084000020EDB50EA6A770FE96E000EEA22EF50E3
:1008500006C4E9FF07C4EAFFEF6E0401010E056F4D
:10086000C80E046F65EF0FF0070E665D16E2020E0C
:10087000DB50EA6A7B0FE96E000EEA2266C0EFFFEA
:10088000020EDB5003E1EAEC0FF002D034EC10F082
:100890000401056BC80E046F01D06C8165EF0FF089
:1008A000020EDB50EA6A7B0FE96E000EEA22EF507F
:1008B00006C4E9FF07C4EAFFEF6E0401010E056FED
:1008C000C80E046F65EF0FF0030E665D16E2020EB0
:1008D000DB50EA6A7D0FE96E000EEA2266C0EFFF88
:1008E000020EDB5003E117EC10F002D061EC10F0C7
:1008F0000401056BC80E046F01D06C8165EF0FF029
:10090000020EDB50EA6A7D0FE96E000EEA22EF501C
:1009100006C4E9FF07C4EAFFEF6E0401010E056F8C
:10092000C80E046F65EF0FF0695102E069053DE103
:10093000020EDB50EA6A7F0FE96E000EEA2266C003
:10094000EFFF020EDB50EA6A810FE96E000EEA2229
:1009500067C0EFFF020EDB5002E1819401D0829C60
:10096000020EDB50EA6A810FE96E000EEA22EF50B8
:100970000F0B3009C96EC7A0FED7010EC9CFDBFF30
:10098000020EDB50EA6A7F0FE96E000EEA22EF509A
:10099000C96EC7A0FED7010EC9CFDBFF020EDB5028
:1009A00002E1818401D0828C41D0695103E0020EC2
:1009B000695D3CE1020EDB50EA6A830FE96E000ECE
:1009C000EA2266C0EFFF020EDB50EA6A850FE96E8D
:1009D000000EEA2267C0EFFF020EDB5002E18194B5
:1009E00001D0829C020EDB50EA6A850FE96E000E90
:1009F000EA22EF500F0BB009C96EC7A0FED7010E57
:100A0000C9CFDBFF020EDB50EA6A830FE96E000EEE
:100A1000EA22EF50C96EC7A0FED7010EC9CFDBFF97
:100A2000020EDB5002E1818401D0828C8294829498
:100A3000829482840401056BC80E046F65EF0FF089
:100A4000020EDB50EA6A7F0FE96E000EEA22EF50D9
:100A500006C4E9FF07C4EAFFEF6E020EDB50EA6A44
:100A6000810FE96E000EEA22EF50E66E010E0401DE
:100A7000EA6A0625E96E0751EA22E552E750EF6E71
:100A8000020EDB50EA6A830FE96E000EEA22EF5095
:100A9000E66E020EEA6A0625E96E0751EA22E55281
:100AA000E750EF6E020EDB50EA6A850FE96E000E2A
:100AB000EA22EF50E66E030EEA6A0625E96E075158
:100AC000EA22E552E750EF6E040E056FC80E046F80
:100AD00065EF0FF067C012F012C013F0126A665192
:100AE00000011210106E13C011F0070E10C0DBFFD2
:100AF000080E11C0DBFF070EDBCF10F0080EDBCFB6
:100B000011F0040ED89011321032E804FBE1FF0E10
:100B10001016070E111610C0DBFF080E11C0DBFF08
:100B2000000167AF75D0070EDBCF10F0080EDBCFEA
:100B300011F0000ED8801056080E1156050E10C088
:100B4000DBFF060E11C0DBFF66A705D0050EDB0636
:100B5000060E01E2DB06FF0EE76E050EDBCF10F09E
:100B6000060EDBCF11F0E7501016116A020EDB50B3
:100B7000EA6A7F0FE96E000EEA2210C0EFFF050E51
:100B8000DBCF10F0060EDBCF11F011C010F0116AB0
:100B9000020EDB50EA6A810FE96E000EEA2210C0F5
:100BA000EFFF070EDBCF10F0080EDBCF11F0000EC9
:100BB0001026080E1122050E10C0DBFF060E11C014
:100BC000DBFFFF0EE76E050EDBCF10F0060EDBCF6E
:100BD00011F0E7501016116A020EDB50EA6A830F1B
:100BE000E96E000EEA2210C0EFFF050EDBCF10F019
:100BF000060EDBCF11F011C010F0116A020EDB50AF
:100C0000EA6A850FE96E000EEA2210C0EFFF74D089
:100C1000070EDBCF10F0080EDBCF11F0000E102610
:100C2000080E1122050E10C0DBFF060E11C0DBFFFF
:100C300066A705D0050EDB2A060E01E3DB2AFF0EB0
:100C4000E76E050EDBCF10F0060EDBCF11F0E7509C
:100C50001016116A020EDB50EA6A7F0FE96E000E71
:100C6000EA2210C0EFFF050EDBCF10F0060EDBCF3F
:100C700011F011C010F0116A020EDB50EA6A810F08
:100C8000E96E000EEA2210C0EFFF070EDBCF10F076
:100C9000080EDBCF11F0000ED8801056080E11564A
:100CA000050E10C0DBFF060E11C0DBFFFF0EE76E66
:100CB000050EDBCF10F0060EDBCF11F0E75010165B
:100CC000116A020EDB50EA6A830FE96E000EEA2217
:100CD00010C0EFFF050EDBCF10F0060EDBCF11F0DA
:100CE00011C010F0116A020EDB50EA6A850FE96E3E
:100CF000000EEA2210C0EFFF020EDB5002E18194E9
:100D000001D0829C020EDB50EA6A810FE96E000E70
:100D1000EA22EF500F0B3009C96EC7A0FED7010EB3
:100D2000C9CFDBFF020EDB50EA6A7F0FE96E000ECF
:100D3000EA22EF50C96EC7A0FED7010EC9CFDBFF74
:100D4000020EDB5003E18184819402D0828C829C6C
:100D5000020EDB50EA6A850FE96E000EEA22EF50C0
:100D60000F0BB009C96EC7A0FED7010EC9CFDBFFBC
:100D7000020EDB50EA6A830FE96E000EEA22EF50A2
:100D8000C96EC7A0FED7010EC9CFDBFF020EDB5034
:100D900002E1818401D0828C829482948294828444
:100DA000010E0001691502E0010E01D0000EE66E91
:100DB000020EDB50EA6A790FE96E000EEA22E55274
:100DC000E750EF6E020EDB50EA6A790FE96E000E13
:100DD000EA22EF500EE1070E6615E66E020EDB50BA
:100DE000EA6A7D0FE96E000EEA22E552E750EF6EE7
:100DF0000DD0070E6615E66E020EDB50EA6A7B0F19
:100E0000E96E000EEA22E552E750EF6E020EDB506B
:100E100007E1DFEC0FF017EC10F0EAEC0FF006D072
:100E200029EC10F061EC10F034EC10F00401056BCB
:100E3000C80E046F65EF0FF0020EDB50EA6A7F0FF9
:100E4000E96E000EEA22EF5006C4E9FF07C4EAFF8C
:100E5000EF6E020EDB50EA6A810FE96E000EEA22A5
:100E6000EF50E66E010E0401EA6A0625E96E0751AD
:100E7000EA22E552E750EF6E020EDB50EA6A830F7A
:100E8000E96E000EEA22EF50E66E020EEA6A0625CF
:100E9000E96E0751EA22E552E750EF6E020EDB5091
:100EA000EA6A850FE96E000EEA22EF50E66E030E45
:100EB000EA6A0625E96E0751EA22E552E750EF6E2D
:100EC000020EDB50EA6A790FE96E000EEA22EF505B
:100ED00009E1020EDB50EA6A7D0FE96E000EEA229C
:100EE000EF5008D0020EDB50EA6A7B0FE96E000E6D
:100EF000EA22EF50E66E040EEA6A0625E96E075113
:100F0000EA22E552E750EF6E020EDB50EA6A790FF3
:100F1000E96E000EEA22EF50E66E050EEA6A06253B
:100F2000E96E0751EA22E552E750EF6E060E056FB3
:100F3000C80E046F65EF0FF067C016F016C017F00B
:100F4000166A665100011610146E17C015F0020ED5
:100F5000DB501C0DF3CF12F0F4CF13F0870E1226E6
:100F6000000E1322020EDB50EA6A790FE96E000EC2
:100F7000EA22EF500E0D1250F324106E1350F4209D
:100F8000116E020EDB50EA6A790FE96E000EEA225A
:100F9000EF5009E1020EDB50EA6A7B0FE96E000EAA
:100FA000EA22EF5008D0020EDB50EA6A7D0FE96EAC
:100FB000000EEA22EF50020D1050F324E96E11509A
:100FC000F420EA6E14C0EEFF15C0EDFF0401056BBE
:100FD000C80E046F65EF0FF0020EDB501C0DF3CF4F
:100FE00012F0F4CF13F0870E1226000E1322020E19
:100FF000DB50EA6A790FE96E000EEA22EF500E0D1F
:101000001250F324106E1350F420116E020EDB50B8
:10101000EA6A790FE96E000EEA22EF5009E1020E4A
:10102000DB50EA6A7B0FE96E000EEA22EF5008D02F
:10103000020EDB50EA6A7D0FE96E000EEA22EF50E5
:10104000020D1050F324E96E1150F420EA6E070EE1
:10105000EECFDBFF080EEDCFDBFFFF0EE76E070ED6
:10106000DBCF10F0080EDBCF11F0E7501016116A3D
:10107000105006C4E9FF07C4EAFFEF6E070EDBCF8E
:1010800010F0080EDBCF11F011C010F0116A010E44
:101090000401EA6A0625E96E0751EA2210C0EFFF53
:1010A000020E056FC80E046F65EF0FF0050EDB6AC8
:1010B000060EDB6A010EDB6A100EF36E010EDBCF4B
:1010C000F4FFF350F45C37E28292010EC96EC7A0C0
:1010D000FED7040EC9CFDBFF020EDB5002E1A00EEB
:1010E00001D0E00EC96EC7A0FED70F0EC914E76E7F
:1010F000040EE7CFDBFFC96AC7A0FED7030EC9CF36
:10110000DBFF8282040EDBCF12F012C013F0126AF2
:10111000030EDB5000011210106E13C011F0D950F5
:10112000050FE96EDACFEAFF1050EE261150ED22DE
:10113000010EDB2AC1D7D950050FE96EDACFEAFFDD
:10114000040E0F0B06E0EC52D890ED32EF32E806B9
:10115000FAE1FF0EE76E050EDBCF10F0060EDBCFD7
:1011600011F0E7501016116A105006C4E9FF07C4C9
:10117000EAFFEF6E050EDBCF10F0060EDBCF11F0AD
:1011800011C010F0116A010E0401EA6A0625E96E29
:101190000751EA2210C0EFFF020E056FC80E046F60
:1011A00065EF0FF0070EDB6A080EDB6ADF6A040EDC
:1011B000DF5C5CE2050EDB6A060EDB6A010EDB6AB1
:1011C000100EF36E010EDBCFF4FFF350F45C37E248
:1011D0008292010EC96EC7A0FED7040EC9CFDBFFF5
:1011E000020EDB5002E1A00E01D0E00EC96EC7A0D6
:1011F000FED70F0EC914E76E040EE7CFDBFFC96AF6
:10120000C7A0FED7030EC9CFDBFF8282040EDBCF5F
:1012100012F012C013F0126A030EDB50000112101C
:10122000106E13C011F0D950050FE96EDACFEAFF46
:101230001050EE261150ED22010EDB2AC1D7050E0B
:10124000DBCF10F0060EDBCF11F0040ED890113278
:101250001032E804FBE1D950070FE96EDACFEAFF5C
:101260001050EE261150ED22DF2AA1D7070EDBCF5A
:1012700010F0080EDBCF11F0D89011321032D89058
:1012800011321032050E10C0DBFF060E11C0DBFF5D
:10129000020EDB501C0DF3CF12F0F4CF13F0870ECB
:1012A0001226000E1322020EDB50EA6A790FE96E55
:1012B000000EEA22EF500E0D1250F324106E135060
:1012C000F420116E020EDB50EA6A790FE96E000E0F
:1012D000EA22EF5009E1020EDB50EA6A7B0FE96E69
:1012E000000EEA22EF5008D0020EDB50EA6A7D0FB2
:1012F000E96E000EEA22EF50020D1050F324E96E61
:101300001150F420EA6E070EEECFDBFF080EEDCF92
:10131000DBFFFF0EE76E050EDBCF10F0060EDBCF16
:1013200011F0E7501016116A105006C4E9FF07C407
:10133000EAFFEF6E050EDBCF10F0060EDBCF11F0EB
:1013400011C010F0116A010E0401EA6A0625E96E67
:101350000751EA2210C0EFFFFF0EE76E070EDBCF4A
:1013600010F0080EDBCF11F0E7501016116A020ED4
:10137000EA6A0625E96E0751EA2210C0EFFF070E60
:10138000DBCF10F0080EDBCF11F011C010F0116AA6
:10139000030EEA6A0625E96E0751EA2210C0EFFF44
:1013A000020EDB50EA6A790FE96E000EEA22EF5076
:1013B00009E1020EDB50EA6A7B0FE96E000EEA22B9
:1013C000EF5008D0020EDB50EA6A7D0FE96E000E86
:1013D000EA22EF50E66E040EEA6A0625E96E07512E
:1013E000EA22E552E750EF6E020EDB50EA6A790F0F
:1013F000E96E000EEA22EF50E66E050EEA6A062557
:10140000E96E0751EA22E552E750EF6E060E056FCE
:10141000C80E046F65EF0FF0F29EA69EA69CA684F0
:10142000020EDB50EA6A790FE96E000EEA22EF50F5
:1014300009E1020EDB50EA6A7B0FE96E000EEA2238
:10144000EF5008D0020EDB50EA6A7D0FE96E000E05
:10145000EA22EF50E824116E020EDB50EA6A790F9F
:10146000E96E000EEA22EF38F00B106E020EDB5030
:10147000200DF35010101110A96E020EDB501C0D40
:10148000F3CF14F0F4CF15F0870E1426000E1522BA
:10149000020EDB50EA6A790FE96E000EEA22EF5085
:1014A0000E0D1450F324126E1550F420136E020E1C
:1014B000DB50EA6A790FE96E000EEA22EF5009E18B
:1014C000020EDB50EA6A7B0FE96E000EEA22EF5053
:1014D00008D0020EDB50EA6A7D0FE96E000EEA22A8
:1014E000EF50020D1250F324E96E1350F420EA6E0F
:1014F000EECF10F0EFCF11F01050A86E550EA76E82
:10150000AA0EA76EA682A1A8FED7A198A92A020EAC
:10151000DB501C0DF3CF14F0F4CF15F0870E14261A
:10152000000E1522020EDB50EA6A790FE96E000EFA
:10153000EA22EF500E0D1450F324126E1550F420D1
:10154000136E020EDB50EA6A790FE96E000EEA2292
:10155000EF5009E1020EDB50EA6A7B0FE96E000EE4
:10156000EA22EF5008D0020EDB50EA6A7D0FE96EE6
:10157000000EEA22EF50020D1250F324E96E1350D0
:10158000F420EA6EEECF10F0EFCF11F011C010F0A2
:10159000116A1050A86E550EA76EAA0EA76EA682ED
:1015A000A1A8FED7A198A694F28E0401056BC80EDF
:1015B000046F65EF0FF0A69EA69C020EDB50EA6A50
:1015C000790FE96E000EEA22EF5009E1020EDB50BE
:1015D000EA6A7B0FE96E000EEA22EF5008D0020E95
:1015E000DB50EA6A7D0FE96E000EEA22EF50E82434
:1015F000116E020EDB50EA6A790FE96E000EEA22E4
:10160000EF38F00B106E020EDB50200DF35010106F
:101610001110A96EA680030EA8CFDBFFA92AA68011
:10162000040EA8CFDBFFDBCF16F016C017F0166A4A
:10163000030EDB5000011610146E17C015F0020ED9
:10164000DB501C0DF3CF12F0F4CF13F0870E1226EF
:10165000000E1322020EDB50EA6A790FE96E000ECB
:10166000EA22EF500E0D1250F324106E1350F420A6
:10167000116E020EDB50EA6A790FE96E000EEA2263
:10168000EF5009E1020EDB50EA6A7B0FE96E000EB3
:10169000EA22EF5008D0020EDB50EA6A7D0FE96EB5
:1016A000000EEA22EF50020D1050F324E96E1150A3
:1016B000F420EA6E14C0EEFF15C0EDFF0401056BC7
:1016C000C80E046F65EF0FF0090EDB6A0A0EDB6AC5
:1016D0000B0EDB6ADF6ADF50106E116AD890115072
:1016E00004E6FA0E105C000E11583CE29EA2FED7F2
:1016F0009E928292010EC96EC7A0FED7040EC9CF7A
:10170000DBFF020EDB5002E1A00E01D0E00EC96E3D
:10171000C7A0FED70F0EC914E76E040EE7CFDBFF9C
:10172000C96AC7A0FED7030EC9CFDBFF8282040EB1
:10173000DBCF13F013C014F0136A030EDB5000016B
:101740001310106E14C011F0126AD950090FE96E0F
:10175000DACFEAFF1050EE261150EE221250EE22A0
:10176000DF2AB9D7090EDBCF10F00A0EDBCF11F05C
:101770000B0EDBCF12F0FA0E0A6E0B6A0C6A10C069
:1017800005F011C006F012C007F086EC13F005C09A
:1017900010F006C011F007C012F0050E10C0DBFFFC
:1017A000060E11C0DBFFFF0EE76E050EDBCF10F05B
:1017B000060EDBCF11F0E7501016116A105006C468
:1017C000E9FF07C4EAFFEF6E050EDBCF10F0060E4F
:1017D000DBCF11F011C010F0116A010E0401EA6AAA
:1017E0000625E96E0751EA2210C0EFFF020E056FD1
:1017F000C80E046F6AD3090EDB6A0A0EDB6A0B0E91
:10180000DB6ADF6ADF50106E116AD890115004E66F
:10181000FA0E105C000E11583CE29EA2FED79E927A
:101820008292010EC96EC7A0FED7040EC9CFDBFF9E
:10183000020EDB5002E1A00E01D0E00EC96EC7A07F
:10184000FED70F0EC914E76E040EE7CFDBFFC96A9F
:10185000C7A0FED7030EC9CFDBFF8282040EDBCF09
:1018600013F013C014F0136A030EDB5000011310C1
:10187000106E14C011F0126AD950090FE96EDACF58
:10188000EAFF1050EE261150EE221250EE22DF2A0F
:10189000B9D7090EDBCF10F00A0EDBCF11F00B0E1B
:1018A000DBCF12F0FA0E0A6E0B6A0C6A10C005F05C
:1018B00011C006F012C007F086EC13F005C010F05E
:1018C00006C011F007C012F0050E10C0DBFF060EB7
:1018D00011C0DBFF020EDB501C0DF3CF12F0F4CF72
:1018E00013F0870E1226000E1322020EDB50EA6A56
:1018F000790FE96E000EEA22EF500E0D1250F3241C
:10190000106E1350F420116E020EDB50EA6A790F4C
:10191000E96E000EEA22EF5009E1020EDB50EA6A9E
:101920007B0FE96E000EEA22EF5008D0020EDB506A
:10193000EA6A7D0FE96E000EEA22EF50020D1050A8
:10194000F324E96E1150F420EA6E070EEECFDBFFB0
:10195000080EEDCFDBFFFF0EE76E050EDBCF10F0BC
:10196000060EDBCF11F0E7501016116A105006C4B6
:10197000E9FF07C4EAFFEF6E050EDBCF10F0060E9D
:10198000DBCF11F011C010F0116A010E0401EA6AF8
:101990000625E96E0751EA2210C0EFFFFF0EE76E41
:1019A000070EDBCF10F0080EDBCF11F0E75010165A
:1019B000116A020EEA6A0625E96E0751EA2210C092
:1019C000EFFF070EDBCF10F0080EDBCF11F011C0D8
:1019D00010F0116A030EEA6A0625E96E0751EA2241
:1019E00010C0EFFF020EDB50EA6A790FE96E000EBD
:1019F000EA22EF5009E1020EDB50EA6A7B0FE96E42
:101A0000000EEA22EF5008D0020EDB50EA6A7D0F8A
:101A1000E96E000EEA22EF50E66E040EEA6A062531
:101A2000E96E0751EA22E552E750EF6E020EDB50F5
:101A3000EA6A790FE96E000EEA22EF50E66E050EB3
:101A4000EA6A0625E96E0751EA22E552E750EF6E91
:101A5000060E056FC80E046F38D2090EDB6A0A0E37
:101A6000DB6A0B0EDB6A0C0EDB6A0D0EDB6A0E0EF8
:101A7000DB6ADF6ADF50106E116AD890115004E6FD
:101A8000FA0E105C000E115869E29EA2FED79E92DB
:101A90008292010EC96EC7A0FED7040EC9CFDBFF2C
:101AA000A00EC96EC7A0FED70F0EC914E76E040EB4
:101AB000E7CFDBFFC96AC7A0FED7030EC9CFDBFFA4
:101AC0008282040EDBCF13F013C014F0136A030EEE
:101AD000DB5000011310106E14C011F0126AD950BF
:101AE000090FE96EDACFEAFF1050EE261150EE2210
:101AF0001250EE228292010EC96EC7A0FED7040ECC
:101B0000C9CFDBFFE00EC96EC7A0FED70F0EC91408
:101B1000E76E040EE7CFDBFFC96AC7A0FED7030E4E
:101B2000C9CFDBFF8282040EDBCF13F013C014F0A9
:101B3000136A030EDB5000011310106E14C011F075
:101B4000126AD9500C0FE96EDACFEAFF1050EE2678
:101B50001150EE221250EE22DF2A8CD706C4E9FF84
:101B600007C4EAFF7FC0EFFF010E0401EA6A062501
:101B7000E96E0751EA2281C0EFFF020EEA6A0625EC
:101B8000E96E0751EA2283C0EFFF030EEA6A0625D9
:101B9000E96E0751EA2285C0EFFF0001795102E1A9
:101BA0007D5101D07B51E66E040E0401EA6A0625E0
:101BB000E96E0751EA22E552E750EF6E050EEA6A38
:101BC0000625E96E0751EA2279C0EFFF090EDBCF47
:101BD00010F00A0EDBCF11F00B0EDBCF12F0FA0E75
:101BE0000A6E0B6A0C6A10C005F011C006F012C034
:101BF00007F086EC13F005C010F006C011F007C026
:101C000012F0050E10C0DBFF060E11C0DBFF000155
:101C100079510E0DF3CF10F0F4CF11F0870E10268E
:101C2000000E1122795102E17B5101D07D51020D4C
:101C30001050F324E96E1150F420EA6E070EEECF37
:101C4000DBFF080EEDCFDBFFFF0EE76E050EDBCFEF
:101C500010F0060EDBCF11F0E7501016116A060ED9
:101C60000401EA6A0625E96E0751EA2210C0EFFF77
:101C7000050EDBCF10F0060EDBCF11F011C010F017
:101C8000116A070EEA6A0625E96E0751EA2210C0BA
:101C9000EFFFFF0EE76E070EDBCF10F0080EDBCF75
:101CA00011F0E7501016116A080EEA6A0625E96E6F
:101CB0000751EA2210C0EFFF070EDBCF10F0080E2D
:101CC000DBCF11F011C010F0116A090EEA6A062587
:101CD000E96E0751EA2210C0EFFF0001795102E1DD
:101CE0007B5101D07D51E66E0A0E0401EA6A062599
:101CF000E96E0751EA22E552E750EF6E0B0EEA6AF1
:101D00000625E96E0751EA2277C0EFFF0C0EEA6A5A
:101D10000625E96E0751EA2280C0EFFF0D0EEA6A40
:101D20000625E96E0751EA2282C0EFFF0E0EEA6A2D
:101D30000625E96E0751EA2284C0EFFF0F0EEA6A1A
:101D40000625E96E0751EA2286C0EFFF00017A51AD
:101D500002E17E5101D07C51E66E100E0401EA6A68
:101D60000625E96E0751EA22E552E750EF6E110EA3
:101D7000EA6A0625E96E0751EA227AC0EFFF0C0EE7
:101D8000DBCF10F00D0EDBCF11F00E0EDBCF12F01B
:101D9000FA0E0A6E0B6A0C6A10C005F011C006F04C
:101DA00012C007F086EC13F005C010F006C011F069
:101DB00007C012F0050E10C0DBFF060E11C0DBFFDE
:101DC00000017A510E0DF3CF10F0F4CF11F0A30EF5
:101DD0001026000E11227A5102E17C5101D07E5171
:101DE000020D1050F324E96E1150F420EA6E070E34
:101DF000EECFDBFF080EEDCFDBFFFF0EE76E050E2B
:101E0000DBCF10F0060EDBCF11F0E7501016116A91
:101E1000120E0401EA6A0625E96E0751EA2210C093
:101E2000EFFF050EDBCF10F0060EDBCF11F011C077
:101E300010F0116A130EEA6A0625E96E0751EA22CC
:101E400010C0EFFFFF0EE76E070EDBCF10F0080E9D
:101E5000DBCF11F0E7501016116A140EEA6A06255E
:101E6000E96E0751EA2210C0EFFF070EDBCF10F03A
:101E7000080EDBCF11F011C010F0116A150EEA6ADE
:101E80000625E96E0751EA2210C0EFFF00017A51E2
:101E900002E17C5101D07E51E66E160E0401EA6A21
:101EA0000625E96E0751EA22E552E750EF6E170E5C
:101EB000EA6A0625E96E0751EA2278C0EFFF180E9C
:101EC000056FC80E046F01D06C810F0EE15C02E259
:101ED000E16AE552E16EE552E7CFD9FF1200180E34
:101EE00000017515100A1AE0180A17E0080A01E047
:101EF00016D06F51060A0EE0030A01E00DD070C043
:101F00006EFF6E5001E003D0010E766F02D0020E1C
:101F1000766F02D01BD800D002D001D000D01200C2
:101F2000180E00017515100A0FE0180A0CE0080AD7
:101F300001E00BD00401400E016F880E006F056BAD
:101F4000C80E046F02D001D000D01200D9CFE6FF36
:101F5000E1CFD9FFE652400E0001735D05E26F69E3
:101F600073C074F0736B03D0400E746F735FDF6ADD
:101F700000017451DF5C16E271C0F6FF72C0F7FF1A
:101F8000712B000E72230800F550E66EDF5004013D
:101F9000EA6A0625E96E0751EA22E552E750EF6E3C
:101FA000DF2AE6D774C005F4400E04010419400B83
:101FB0008809046FE552E552E7CFD9FF120000010E
:101FC0007951010A05E0010A01E003D0819601D0B0
:101FD0008186120000017B51060A25E0030A1FE0FA
:101FE000010A19E0070A13E0010A0DE0030A07E0FD
:101FF000010A01E01BD0819C819E809A17D0818CC0
:10200000819E809A13D0819C818E809A0FD0818C82
:10201000818E809A0BD0819C819E808A07D0818C92
:10202000819E808A03D0819C818E808A120000016B
:102030007D51020A0BE0030A06E0010A01E008D024
:10204000819A819805D0818A819802D0819A81886D
:10205000120000017A51010A05E0010A01E003D0F3
:10206000809801D08088120000017C51060A25E08A
:10207000030A1FE0010A19E0070A13E0010A0DE054
:10208000030A07E0010A01E01BD080928090829051
:1020900017D080828090829013D08092808082902E
:1020A0000FD08082808082900BD08092809082803E
:1020B00007D080828090828003D08092808082804E
:1020C000120000017E51020A0BE0030A06E0010A39
:1020D00001E008D08094809605D08084809602D05C
:1020E000809480861200D9CFE6FFE1CFD9FF0A0E97
:1020F000E126806A0F0EC16E926A040E816E010E97
:10210000936E460E826E946A400EC76E210EC66EA6
:10211000C70ECB6E050ECA6E16EC00F0030E000162
:10212000765D03E025EC00F0F9D7776B796B7B6B7C
:1021300051DF00017D6B7BDF00017F6B816B836B67
:10214000856B786B7A6B7C6B8FDF00017E6BB9DF00
:102150000001806B826B846B866B030EDB6A020E60
:10216000F36E030EDBCFF4FFF350F45C64E2040E75
:10217000DB6A020EF36E040EDBCFF4FFF350F45C67
:1021800057E2050EDB6A070EF36E050EDBCFF4FF98
:10219000F350F45C4AE2A69EA69C050EDB50E824B0
:1021A000116E040EDB38F00B106E030EDB50200DA9
:1021B000F35010101110A96EA680010EA8CFDBFFFE
:1021C000A92AA680020EA8CFDBFFDBCF16F016C02F
:1021D00017F0166A010EDB5000011610146E17C0BE
:1021E00015F0030EDB501C0DF3CF12F0F4CF13F0FB
:1021F000870E1226000E1322040EDB500E0D125015
:10220000F324106E1350F420116E050EDB50020DF6
:102210001050F324E96E1150F420EA6E14C0EEFF62
:1022200015C0EDFF050EDB2AAED7040EDB2AA1D7C1
:10223000030EDB2A94D725EC00F00001770501E0BE
:10224000E7D079510E0DF3CF10F0F4CF11F0870ED7
:102250001026000E1122795102E17B5101D07D51EF
:10226000020D1050F324E96E1150F420EA6E060EB0
:10227000EECFDBFF070EEDCFDBFF080EDB6A090EAA
:10228000DB6ADF6A080EDF5C31E28292010EC96E02
:10229000C7A0FED7020EC9CFDBFFA00EC96EC7A034
:1022A000FED70F0EC914E76E020EE7CFDBFFC96A37
:1022B000C7A0FED7010EC9CFDBFF8282020EDBCFA3
:1022C00012F012C013F0126A010EDB50000112105E
:1022D000106E13C011F0D950080FE96EDACFEAFF83
:1022E0001050EE261150ED22DF2ACCD7D950080F1E
:1022F000E96EDACFEAFF030E0F0B06E0EC52D8903E
:10230000ED32EF32E806FAE1080EDBCF12F0090EEB
:10231000DBCF13F0060EDBCF14F0070EDBCF15F08A
:102320001450125C155013580FE2060EDBCF16F056
:10233000070EDBCF17F0080EDB50165C106E090E8F
:10234000DB501758116E0ED0080EDBCF18F0090EB7
:10235000DBCF19F0060EDB50185C106E070EDB5059
:102360001958116E080E10C0DBFF090E11C0DBFFFB
:102370000001795120E1D950080FE96EDACFEAFF68
:10238000D00ED880EE54070EED5404E27B5102E0EB
:102390007B070FD0080EDBCF10F0090EDBCF11F05A
:1023A000640E105C000E115804E2050E7B5D01E026
:1023B0007B2B10DE2DD0D950080FE96EDACFEAFF63
:1023C000D00ED880EE54070EED5404E27D5102E0A9
:1023D0007D071DD0080EDBCF10F0090EDBCF11F00A
:1023E000800E105C020E115804E27D5102E17D2B3B
:1023F0000ED0080EDBCF10F0090EDBCF11F0200E4F
:10240000105C030E115803E27D0501E17D2B0FDE08
:102410000001780501E0E7D07A510E0DF3CF10F0FE
:10242000F4CF11F0A30E1026000E11227A5102E112
:102430007C5101D07E51020D1050F324E96E1150F1
:10244000F420EA6E060EEECFDBFF070EEDCFDBFFCA
:10245000080EDB6A090EDB6ADF6A080EDF5C31E218
:102460008292010EC96EC7A0FED7020EC9CFDBFF54
:10247000E00EC96EC7A0FED70F0EC914E76E020E9C
:10248000E7CFDBFFC96AC7A0FED7010EC9CFDBFFCC
:102490008282020EDBCF12F012C013F0126A010E1C
:1024A000DB5000011210106E13C011F0D950080F4C
:1024B000E96EDACFEAFF1050EE261150ED22DF2A46
:1024C000CCD7D950080FE96EDACFEAFF030E0F0B15
:1024D00006E0EC52D890ED32EF32E806FAE1080E51
:1024E000DBCF12F0090EDBCF13F0060EDBCF14F0BA
:1024F000070EDBCF15F01450125C155013580FE285
:10250000060EDBCF16F0070EDBCF17F0080EDB5000
:10251000165C106E090EDB501758116E0ED0080EA7
:10252000DBCF18F0090EDBCF19F0060EDB50185C7C
:10253000106E070EDB501958116E080E10C0DBFF2D
:10254000090E11C0DBFF00017A5120E1D950080FBC
:10255000E96EDACFEAFFD00ED880EE54070EED54C4
:1025600004E27C5102E07C070FD0080EDBCF10F0B4
:10257000090EDBCF11F0640E105C000E115804E25E
:10258000050E7C5D01E07C2B6FDD2DD0D950080F4E
:10259000E96EDACFEAFFD00ED880EE54070EED5484
:1025A00004E27E5102E07E071DD0080EDBCF10F062
:1025B000090EDBCF11F0800E105C020E115804E200
:1025C0007E5102E17E2B0ED0080EDBCF10F0090EFB
:1025D000DBCF11F0200E105C030E115803E27E05D4
:1025E00001E17E2B6EDD27D60A0EE15C02E2E16A94
:1025F000E552E16EE552E7CFD9FF12002A0EF66EE2
:10260000000EF76E000EF86E00010900F550C46F61
:102610000900F550C56F03E1C46701D03DD0090042
:10262000F550BF6F0900F550C06F0900F550C16F3C
:1026300009000900F550E96E0900F550EA6E09003D
:1026400009000900F550C26F0900F550C36F090079
:102650000900F6CFC6F0F7CFC7F0F8CFC8F0BFC07B
:10266000F6FFC0C0F7FFC1C0F8FF0001C25302E18E
:10267000C35307E00900F550EE6EC207F8E2C30746
:10268000F9D7C6C0F6FFC7C0F7FFC8C0F8FF000102
:10269000C407000EC55BBFD7120012011001000075
:1026A00000406666CDAB0000010200010902120085
:1026B000010100A0320904000000FF00FF00040334
:1026C00009041A034F006C0069006E0020004300EB
:1026D0006F006C006C0065006700650030035500FA
:1026E00053004200200053006F0075007200630029
:1026F00065002F004D0065006100730075007200D9
:102700006500200055006E0069007400036A026ACB
:10271000016A180EE76ED890053606360736013680
:10272000023603360A50015C0B5002580C50035815
:1027300007E30A50015E0B50025A0C50035A052A57
:10274000E72EEAD71200000EF36E00EE00F0040E42
:1027500001D81200EA6002D0EE6AFCD7F350E960BB
:102760001200EE6AFCD713EE00F023EE00F0F86AD8
:102770000F9CFEEC12F0C1EC13F073EC10F0FBD7E1
:1027800012001200FFFFFFFFFFFFFFFFFFFFFFFF31
:10279000FFFFFFFFFFFFFFFFFFFFFFFFFFFFFFFF49
:1027A000FFFFFFFFFFFFFFFFFFFFFFFFFFFFFFFF39
:1027B000FFFFFFFFFFFFFFFFFFFFFFFFFFFFFFFF29
:1027C000FFFFFFFFFFFFFFFFFFFFFFFFFFFFFFFF19
:0200000400F00A
:10000000F007F007F207F107F207F807FFFFFFFF1D
:10001000EF07F307F307FFFFFFFFFFFFFFFFFFFF00
:10002000F107F507F207F107F307FA07FFFFFFFFF4
:10003000EA07FB07FD07FFFFFFFFFFFFFFFFFFFFD3
:10004000FFFFFFFFFFFFFFFFFFFFFFFFFFFFFFFFC0
:10005000FFFFFFFFFFFFFFFFFFFFFFFFFFFFFFFFB0
:10006000FFFFFFFFFFFFFFFFFFFFFFFFFFFFFFFFA0
:10007000FFFFFFFFFFFFFFFFFFFFFFFFFFFFFFFF90
:10008000FFFFFFFFFFFFFFFFFFFFFFFFFFFFFFFF80
:10009000FFFFFFFFFFFFFFFFFFFFFFFFFFFFFFFF70
:1000A000FFFFFFFFFFFFFFFFFFFFFFFFFFFFFFFF60
:1000B000FFFFFFFFFFFFFFFFFFFFFFFFFFFFFFFF50
:1000C000FFFFFFFFFFFFFFFFFFFFFFFFFFFFFFFF40
:1000D000FFFFFFFFFFFFFFFFFFFFFFFFFFFFFFFF30
:1000E000FFFFFFFFFFFFFFFFFFFFFFFFFFFFFFFF20
:1000F000FFFFFFFFFFFFFFFFFFFFFFFFFFFFFFFF10
:020000040030CA
:0E00000020023F1E008181000FC00FE00F4064
:020000040020DA
:08000000FFFFFFFFFFFFFFFF00
:00000001FF
